{
  "_format": "hh-sol-artifact-1",
  "contractName": "ERC6123",
  "sourceName": "contracts/ERC6123.sol",
  "abi": [
    {
      "inputs": [
        {
          "internalType": "string",
          "name": "_irsTokenName",
          "type": "string"
        },
        {
          "internalType": "string",
          "name": "_irsTokenSymbol",
          "type": "string"
        },
        {
          "components": [
            {
              "internalType": "address",
              "name": "fixedRatePayer",
              "type": "address"
            },
            {
              "internalType": "address",
              "name": "floatingRatePayer",
              "type": "address"
            },
            {
              "internalType": "address",
              "name": "oracleContractForBenchmark",
              "type": "address"
            },
            {
              "internalType": "address",
              "name": "settlementCurrency",
              "type": "address"
            },
            {
              "internalType": "uint8",
              "name": "ratesDecimals",
              "type": "uint8"
            },
            {
              "internalType": "uint8",
              "name": "dayCountBasis",
              "type": "uint8"
            },
            {
              "internalType": "int256",
              "name": "swapRate",
              "type": "int256"
            },
            {
              "internalType": "int256",
              "name": "spread",
              "type": "int256"
            },
            {
              "internalType": "uint256",
              "name": "notionalAmount",
              "type": "uint256"
            },
            {
              "internalType": "uint256",
              "name": "settlementFrequency",
              "type": "uint256"
            },
            {
              "internalType": "uint256",
              "name": "startingDate",
              "type": "uint256"
            },
            {
              "internalType": "uint256",
              "name": "maturityDate",
              "type": "uint256"
            },
            {
              "internalType": "uint256[]",
              "name": "settlementDates",
              "type": "uint256[]"
            }
          ],
          "internalType": "struct Types.IRS",
          "name": "_irs",
          "type": "tuple"
        },
        {
          "internalType": "address",
          "name": "_linkToken",
          "type": "address"
        },
        {
          "internalType": "address",
          "name": "_chainlinkOracle",
          "type": "address"
        },
        {
          "internalType": "string",
          "name": "_jobId",
          "type": "string"
        },
        {
          "internalType": "uint256",
          "name": "_initialMarginBuffer",
          "type": "uint256"
        },
        {
          "internalType": "uint256",
          "name": "_initialTerminationFee",
          "type": "uint256"
        },
        {
          "internalType": "uint256",
          "name": "_rateMultiplier",
          "type": "uint256"
        }
      ],
      "stateMutability": "nonpayable",
      "type": "constructor"
    },
    {
      "inputs": [],
      "name": "allSettlementsDone",
      "type": "error"
    },
    {
      "inputs": [
        {
          "internalType": "address",
          "name": "_caller",
          "type": "address"
        },
        {
          "internalType": "address",
          "name": "_withParty",
          "type": "address"
        }
      ],
      "name": "cannotInceptWithYourself",
      "type": "error"
    },
    {
      "inputs": [
        {
          "internalType": "address",
          "name": "_inceptor",
          "type": "address"
        },
        {
          "internalType": "uint256",
          "name": "_dataHash",
          "type": "uint256"
        }
      ],
      "name": "inconsistentTradeDataOrWrongAddress",
      "type": "error"
    },
    {
      "inputs": [
        {
          "internalType": "int256",
          "name": "_amount",
          "type": "int256"
        }
      ],
      "name": "invalidPaymentAmount",
      "type": "error"
    },
    {
      "inputs": [
        {
          "internalType": "int256",
          "name": "_position",
          "type": "int256"
        }
      ],
      "name": "invalidPositionValue",
      "type": "error"
    },
    {
      "inputs": [
        {
          "internalType": "string",
          "name": "_tradeID",
          "type": "string"
        }
      ],
      "name": "invalidTradeID",
      "type": "error"
    },
    {
      "inputs": [
        {
          "internalType": "uint8",
          "name": "_transferMode",
          "type": "uint8"
        }
      ],
      "name": "invalidTransferMode",
      "type": "error"
    },
    {
      "inputs": [
        {
          "internalType": "address",
          "name": "_withParty",
          "type": "address"
        },
        {
          "internalType": "address",
          "name": "_otherParty",
          "type": "address"
        }
      ],
      "name": "mustBeOtherParty",
      "type": "error"
    },
    {
      "inputs": [
        {
          "internalType": "address",
          "name": "_withParty",
          "type": "address"
        },
        {
          "internalType": "address",
          "name": "_payer",
          "type": "address"
        },
        {
          "internalType": "address",
          "name": "_receiver",
          "type": "address"
        }
      ],
      "name": "mustBePayerOrReceiver",
      "type": "error"
    },
    {
      "inputs": [
        {
          "internalType": "uint256",
          "name": "_settlementAmount",
          "type": "uint256"
        },
        {
          "internalType": "uint256",
          "name": "_availableMarginBuffer",
          "type": "uint256"
        }
      ],
      "name": "notEnoughMarginBuffer",
      "type": "error"
    },
    {
      "inputs": [
        {
          "internalType": "int256",
          "name": "_fixedRate",
          "type": "int256"
        },
        {
          "internalType": "int256",
          "name": "_floatingRate",
          "type": "int256"
        }
      ],
      "name": "nothingToSwap",
      "type": "error"
    },
    {
      "inputs": [],
      "name": "obseleteFunction",
      "type": "error"
    },
    {
      "inputs": [],
      "name": "stateMustBeConfirmedOrSettled",
      "type": "error"
    },
    {
      "inputs": [
        {
          "internalType": "uint256",
          "name": "totalSupply_",
          "type": "uint256"
        },
        {
          "internalType": "uint256",
          "name": "maxSupply_",
          "type": "uint256"
        }
      ],
      "name": "supplyExceededMaxSupply",
      "type": "error"
    },
    {
      "anonymous": false,
      "inputs": [
        {
          "indexed": true,
          "internalType": "address",
          "name": "owner",
          "type": "address"
        },
        {
          "indexed": true,
          "internalType": "address",
          "name": "spender",
          "type": "address"
        },
        {
          "indexed": false,
          "internalType": "uint256",
          "name": "value",
          "type": "uint256"
        }
      ],
      "name": "Approval",
      "type": "event"
    },
    {
      "anonymous": false,
      "inputs": [
        {
          "indexed": true,
          "internalType": "bytes32",
          "name": "id",
          "type": "bytes32"
        }
      ],
      "name": "ChainlinkCancelled",
      "type": "event"
    },
    {
      "anonymous": false,
      "inputs": [
        {
          "indexed": true,
          "internalType": "bytes32",
          "name": "id",
          "type": "bytes32"
        }
      ],
      "name": "ChainlinkFulfilled",
      "type": "event"
    },
    {
      "anonymous": false,
      "inputs": [
        {
          "indexed": true,
          "internalType": "bytes32",
          "name": "id",
          "type": "bytes32"
        }
      ],
      "name": "ChainlinkRequested",
      "type": "event"
    },
    {
      "anonymous": false,
      "inputs": [
        {
          "indexed": true,
          "internalType": "bytes32",
          "name": "requestId",
          "type": "bytes32"
        },
        {
          "indexed": false,
          "internalType": "int256",
          "name": "referenceRate",
          "type": "int256"
        }
      ],
      "name": "RequestReferenceRate",
      "type": "event"
    },
    {
      "anonymous": false,
      "inputs": [
        {
          "indexed": false,
          "internalType": "address",
          "name": "initiator",
          "type": "address"
        },
        {
          "indexed": false,
          "internalType": "int256",
          "name": "settlementAmount",
          "type": "int256"
        },
        {
          "indexed": false,
          "internalType": "string",
          "name": "settlementData",
          "type": "string"
        }
      ],
      "name": "SettlementEvaluated",
      "type": "event"
    },
    {
      "anonymous": false,
      "inputs": [
        {
          "indexed": false,
          "internalType": "string",
          "name": "transactionData",
          "type": "string"
        }
      ],
      "name": "SettlementFailed",
      "type": "event"
    },
    {
      "anonymous": false,
      "inputs": [
        {
          "indexed": false,
          "internalType": "address",
          "name": "initiator",
          "type": "address"
        },
        {
          "indexed": false,
          "internalType": "string",
          "name": "tradeData",
          "type": "string"
        },
        {
          "indexed": false,
          "internalType": "string",
          "name": "lastSettlementData",
          "type": "string"
        }
      ],
      "name": "SettlementRequested",
      "type": "event"
    },
    {
      "anonymous": false,
      "inputs": [
        {
          "indexed": false,
          "internalType": "string",
          "name": "transactionData",
          "type": "string"
        }
      ],
      "name": "SettlementTransferred",
      "type": "event"
    },
    {
      "anonymous": false,
      "inputs": [
        {
          "indexed": false,
          "internalType": "address",
          "name": "_account",
          "type": "address"
        },
        {
          "indexed": false,
          "internalType": "uint256",
          "name": "_amount",
          "type": "uint256"
        }
      ],
      "name": "Swap",
      "type": "event"
    },
    {
      "anonymous": false,
      "inputs": [
        {
          "indexed": true,
          "internalType": "address",
          "name": "_payer",
          "type": "address"
        },
        {
          "indexed": true,
          "internalType": "address",
          "name": "_receiver",
          "type": "address"
        }
      ],
      "name": "TerminateSwap",
      "type": "event"
    },
    {
      "anonymous": false,
      "inputs": [
        {
          "indexed": false,
          "internalType": "string",
          "name": "tradeId",
          "type": "string"
        }
      ],
      "name": "TradeActivated",
      "type": "event"
    },
    {
      "anonymous": false,
      "inputs": [
        {
          "indexed": false,
          "internalType": "address",
          "name": "initiator",
          "type": "address"
        },
        {
          "indexed": false,
          "internalType": "string",
          "name": "tradeId",
          "type": "string"
        }
      ],
      "name": "TradeCanceled",
      "type": "event"
    },
    {
      "anonymous": false,
      "inputs": [
        {
          "indexed": false,
          "internalType": "address",
          "name": "confirmer",
          "type": "address"
        },
        {
          "indexed": false,
          "internalType": "string",
          "name": "tradeId",
          "type": "string"
        }
      ],
      "name": "TradeConfirmed",
      "type": "event"
    },
    {
      "anonymous": false,
      "inputs": [
        {
          "indexed": false,
          "internalType": "address",
          "name": "initiator",
          "type": "address"
        },
        {
          "indexed": false,
          "internalType": "address",
          "name": "withParty",
          "type": "address"
        },
        {
          "indexed": false,
          "internalType": "string",
          "name": "tradeId",
          "type": "string"
        },
        {
          "indexed": false,
          "internalType": "string",
          "name": "tradeData",
          "type": "string"
        },
        {
          "indexed": false,
          "internalType": "int256",
          "name": "position",
          "type": "int256"
        },
        {
          "indexed": false,
          "internalType": "int256",
          "name": "paymentAmount",
          "type": "int256"
        },
        {
          "indexed": false,
          "internalType": "string",
          "name": "initialSettlementData",
          "type": "string"
        }
      ],
      "name": "TradeIncepted",
      "type": "event"
    },
    {
      "anonymous": false,
      "inputs": [
        {
          "indexed": false,
          "internalType": "string",
          "name": "tradeId",
          "type": "string"
        },
        {
          "indexed": false,
          "internalType": "string",
          "name": "cause",
          "type": "string"
        }
      ],
      "name": "TradeTerminated",
      "type": "event"
    },
    {
      "anonymous": false,
      "inputs": [
        {
          "indexed": false,
          "internalType": "address",
          "name": "initiator",
          "type": "address"
        },
        {
          "indexed": false,
          "internalType": "string",
          "name": "tradeId",
          "type": "string"
        },
        {
          "indexed": false,
          "internalType": "string",
          "name": "terminationTerms",
          "type": "string"
        }
      ],
      "name": "TradeTerminationCanceled",
      "type": "event"
    },
    {
      "anonymous": false,
      "inputs": [
        {
          "indexed": false,
          "internalType": "address",
          "name": "confirmer",
          "type": "address"
        },
        {
          "indexed": false,
          "internalType": "string",
          "name": "tradeId",
          "type": "string"
        },
        {
          "indexed": false,
          "internalType": "int256",
          "name": "terminationPayment",
          "type": "int256"
        },
        {
          "indexed": false,
          "internalType": "string",
          "name": "terminationTerms",
          "type": "string"
        }
      ],
      "name": "TradeTerminationConfirmed",
      "type": "event"
    },
    {
      "anonymous": false,
      "inputs": [
        {
          "indexed": false,
          "internalType": "address",
          "name": "initiator",
          "type": "address"
        },
        {
          "indexed": false,
          "internalType": "string",
          "name": "tradeId",
          "type": "string"
        },
        {
          "indexed": false,
          "internalType": "int256",
          "name": "terminationPayment",
          "type": "int256"
        },
        {
          "indexed": false,
          "internalType": "string",
          "name": "terminationTerms",
          "type": "string"
        }
      ],
      "name": "TradeTerminationRequest",
      "type": "event"
    },
    {
      "anonymous": false,
      "inputs": [
        {
          "indexed": true,
          "internalType": "address",
          "name": "from",
          "type": "address"
        },
        {
          "indexed": true,
          "internalType": "address",
          "name": "to",
          "type": "address"
        },
        {
          "indexed": false,
          "internalType": "uint256",
          "name": "value",
          "type": "uint256"
        }
      ],
      "name": "Transfer",
      "type": "event"
    },
    {
      "inputs": [
        {
          "internalType": "bool",
          "name": "",
          "type": "bool"
        },
        {
          "internalType": "string",
          "name": "",
          "type": "string"
        }
      ],
      "name": "afterTransfer",
      "outputs": [],
      "stateMutability": "pure",
      "type": "function"
    },
    {
      "inputs": [
        {
          "internalType": "address",
          "name": "owner",
          "type": "address"
        },
        {
          "internalType": "address",
          "name": "spender",
          "type": "address"
        }
      ],
      "name": "allowance",
      "outputs": [
        {
          "internalType": "uint256",
          "name": "",
          "type": "uint256"
        }
      ],
      "stateMutability": "view",
      "type": "function"
    },
    {
      "inputs": [
        {
          "internalType": "address",
          "name": "spender",
          "type": "address"
        },
        {
          "internalType": "uint256",
          "name": "amount",
          "type": "uint256"
        }
      ],
      "name": "approve",
      "outputs": [
        {
          "internalType": "bool",
          "name": "",
          "type": "bool"
        }
      ],
      "stateMutability": "nonpayable",
      "type": "function"
    },
    {
      "inputs": [
        {
          "internalType": "address",
          "name": "account",
          "type": "address"
        }
      ],
      "name": "balanceOf",
      "outputs": [
        {
          "internalType": "uint256",
          "name": "",
          "type": "uint256"
        }
      ],
      "stateMutability": "view",
      "type": "function"
    },
    {
      "inputs": [],
      "name": "benchmark",
      "outputs": [
        {
          "internalType": "int256",
          "name": "",
          "type": "int256"
        }
      ],
      "stateMutability": "view",
      "type": "function"
    },
    {
      "inputs": [
        {
          "internalType": "address",
          "name": "account",
          "type": "address"
        },
        {
          "internalType": "uint256",
          "name": "amount",
          "type": "uint256"
        }
      ],
      "name": "burn",
      "outputs": [
        {
          "internalType": "bool",
          "name": "",
          "type": "bool"
        }
      ],
      "stateMutability": "nonpayable",
      "type": "function"
    },
    {
      "inputs": [
        {
          "internalType": "address",
          "name": "_withParty",
          "type": "address"
        },
        {
          "internalType": "string",
          "name": "_tradeData",
          "type": "string"
        },
        {
          "internalType": "int256",
          "name": "_position",
          "type": "int256"
        },
        {
          "internalType": "int256",
          "name": "_paymentAmount",
          "type": "int256"
        },
        {
          "internalType": "string",
          "name": "_initialSettlementData",
          "type": "string"
        }
      ],
      "name": "cancelTrade",
      "outputs": [],
      "stateMutability": "nonpayable",
      "type": "function"
    },
    {
      "inputs": [
        {
          "internalType": "string",
          "name": "_tradeId",
          "type": "string"
        },
        {
          "internalType": "int256",
          "name": "_terminationPayment",
          "type": "int256"
        },
        {
          "internalType": "string",
          "name": "_terminationTerms",
          "type": "string"
        }
      ],
      "name": "cancelTradeTermination",
      "outputs": [],
      "stateMutability": "nonpayable",
      "type": "function"
    },
    {
      "inputs": [
        {
          "internalType": "address",
          "name": "_withParty",
          "type": "address"
        },
        {
          "internalType": "string",
          "name": "_tradeData",
          "type": "string"
        },
        {
          "internalType": "int256",
          "name": "_position",
          "type": "int256"
        },
        {
          "internalType": "int256",
          "name": "_paymentAmount",
          "type": "int256"
        },
        {
          "internalType": "string",
          "name": "_initialSettlementData",
          "type": "string"
        }
      ],
      "name": "confirmTrade",
      "outputs": [],
      "stateMutability": "nonpayable",
      "type": "function"
    },
    {
      "inputs": [
        {
          "internalType": "string",
          "name": "_tradeId",
          "type": "string"
        },
        {
          "internalType": "int256",
          "name": "_terminationPayment",
          "type": "int256"
        },
        {
          "internalType": "string",
          "name": "_terminationTerms",
          "type": "string"
        }
      ],
      "name": "confirmTradeTermination",
      "outputs": [],
      "stateMutability": "nonpayable",
      "type": "function"
    },
    {
      "inputs": [],
      "name": "dayCountBasis",
      "outputs": [
        {
          "internalType": "uint8",
          "name": "",
          "type": "uint8"
        }
      ],
      "stateMutability": "view",
      "type": "function"
    },
    {
      "inputs": [],
      "name": "decimals",
      "outputs": [
        {
          "internalType": "uint8",
          "name": "",
          "type": "uint8"
        }
      ],
      "stateMutability": "view",
      "type": "function"
    },
    {
      "inputs": [
        {
          "internalType": "address",
          "name": "spender",
          "type": "address"
        },
        {
          "internalType": "uint256",
          "name": "subtractedValue",
          "type": "uint256"
        }
      ],
      "name": "decreaseAllowance",
      "outputs": [
        {
          "internalType": "bool",
          "name": "",
          "type": "bool"
        }
      ],
      "stateMutability": "nonpayable",
      "type": "function"
    },
    {
      "inputs": [],
      "name": "fixedRatePayer",
      "outputs": [
        {
          "internalType": "address",
          "name": "",
          "type": "address"
        }
      ],
      "stateMutability": "view",
      "type": "function"
    },
    {
      "inputs": [],
      "name": "floatingRatePayer",
      "outputs": [
        {
          "internalType": "address",
          "name": "",
          "type": "address"
        }
      ],
      "stateMutability": "view",
      "type": "function"
    },
    {
      "inputs": [
        {
          "internalType": "bytes32",
          "name": "_requestId",
          "type": "bytes32"
        },
        {
          "internalType": "int256",
          "name": "_referenceRate",
          "type": "int256"
        }
      ],
      "name": "fulfill",
      "outputs": [],
      "stateMutability": "nonpayable",
      "type": "function"
    },
    {
      "inputs": [],
      "name": "getConfirmationTime",
      "outputs": [
        {
          "internalType": "uint256",
          "name": "",
          "type": "uint256"
        }
      ],
      "stateMutability": "view",
      "type": "function"
    },
    {
      "inputs": [],
      "name": "getIRSReceipts",
      "outputs": [
        {
          "components": [
            {
              "internalType": "address",
              "name": "from",
              "type": "address"
            },
            {
              "internalType": "address",
              "name": "to",
              "type": "address"
            },
            {
              "internalType": "uint256",
              "name": "netAmount",
              "type": "uint256"
            },
            {
              "internalType": "uint256",
              "name": "timestamp",
              "type": "uint256"
            },
            {
              "internalType": "uint256",
              "name": "fixedRatePayment",
              "type": "uint256"
            },
            {
              "internalType": "uint256",
              "name": "floatingRatePayment",
              "type": "uint256"
            }
          ],
          "internalType": "struct Types.IRSReceipt[]",
          "name": "",
          "type": "tuple[]"
        }
      ],
      "stateMutability": "view",
      "type": "function"
    },
    {
      "inputs": [],
      "name": "getInceptingTime",
      "outputs": [
        {
          "internalType": "uint256",
          "name": "",
          "type": "uint256"
        }
      ],
      "stateMutability": "view",
      "type": "function"
    },
    {
      "inputs": [],
      "name": "getInitialMargin",
      "outputs": [
        {
          "internalType": "uint256",
          "name": "",
          "type": "uint256"
        }
      ],
      "stateMutability": "view",
      "type": "function"
    },
    {
      "inputs": [],
      "name": "getInitialTerminationFee",
      "outputs": [
        {
          "internalType": "uint256",
          "name": "",
          "type": "uint256"
        }
      ],
      "stateMutability": "view",
      "type": "function"
    },
    {
      "inputs": [
        {
          "internalType": "address",
          "name": "_account",
          "type": "address"
        }
      ],
      "name": "getMarginCall",
      "outputs": [
        {
          "internalType": "uint256",
          "name": "",
          "type": "uint256"
        }
      ],
      "stateMutability": "view",
      "type": "function"
    },
    {
      "inputs": [
        {
          "internalType": "address",
          "name": "_account",
          "type": "address"
        }
      ],
      "name": "getMarginRequirement",
      "outputs": [
        {
          "components": [
            {
              "internalType": "uint256",
              "name": "marginBuffer",
              "type": "uint256"
            },
            {
              "internalType": "uint256",
              "name": "terminationFee",
              "type": "uint256"
            }
          ],
          "internalType": "struct Types.MarginRequirement",
          "name": "",
          "type": "tuple"
        }
      ],
      "stateMutability": "view",
      "type": "function"
    },
    {
      "inputs": [],
      "name": "getRateMultiplier",
      "outputs": [
        {
          "internalType": "uint256",
          "name": "",
          "type": "uint256"
        }
      ],
      "stateMutability": "view",
      "type": "function"
    },
    {
      "inputs": [],
      "name": "getSwapCount",
      "outputs": [
        {
          "internalType": "uint8",
          "name": "",
          "type": "uint8"
        }
      ],
      "stateMutability": "view",
      "type": "function"
    },
    {
      "inputs": [],
      "name": "getTradeID",
      "outputs": [
        {
          "internalType": "string",
          "name": "",
          "type": "string"
        }
      ],
      "stateMutability": "view",
      "type": "function"
    },
    {
      "inputs": [],
      "name": "getTradeState",
      "outputs": [
        {
          "internalType": "enum ERC6123Storage.TradeState",
          "name": "",
          "type": "uint8"
        }
      ],
      "stateMutability": "view",
      "type": "function"
    },
    {
      "inputs": [
        {
          "internalType": "address",
          "name": "_withParty",
          "type": "address"
        },
        {
          "internalType": "string",
          "name": "_tradeData",
          "type": "string"
        },
        {
          "internalType": "int256",
          "name": "_position",
          "type": "int256"
        },
        {
          "internalType": "int256",
          "name": "_paymentAmount",
          "type": "int256"
        },
        {
          "internalType": "string",
          "name": "_initialSettlementData",
          "type": "string"
        }
      ],
      "name": "inceptTrade",
      "outputs": [
        {
          "internalType": "string",
          "name": "",
          "type": "string"
        }
      ],
      "stateMutability": "nonpayable",
      "type": "function"
    },
    {
      "inputs": [
        {
          "internalType": "address",
          "name": "spender",
          "type": "address"
        },
        {
          "internalType": "uint256",
          "name": "addedValue",
          "type": "uint256"
        }
      ],
      "name": "increaseAllowance",
      "outputs": [
        {
          "internalType": "bool",
          "name": "",
          "type": "bool"
        }
      ],
      "stateMutability": "nonpayable",
      "type": "function"
    },
    {
      "inputs": [],
      "name": "initiateSettlement",
      "outputs": [],
      "stateMutability": "view",
      "type": "function"
    },
    {
      "inputs": [],
      "name": "maturityDate",
      "outputs": [
        {
          "internalType": "uint256",
          "name": "",
          "type": "uint256"
        }
      ],
      "stateMutability": "view",
      "type": "function"
    },
    {
      "inputs": [
        {
          "internalType": "address",
          "name": "account",
          "type": "address"
        },
        {
          "internalType": "uint256",
          "name": "amount",
          "type": "uint256"
        }
      ],
      "name": "mint",
      "outputs": [
        {
          "internalType": "bool",
          "name": "",
          "type": "bool"
        }
      ],
      "stateMutability": "nonpayable",
      "type": "function"
    },
    {
      "inputs": [],
      "name": "name",
      "outputs": [
        {
          "internalType": "string",
          "name": "",
          "type": "string"
        }
      ],
      "stateMutability": "view",
      "type": "function"
    },
    {
      "inputs": [],
      "name": "notionalAmount",
      "outputs": [
        {
          "internalType": "uint256",
          "name": "",
          "type": "uint256"
        }
      ],
      "stateMutability": "view",
      "type": "function"
    },
    {
      "inputs": [],
      "name": "oracleContractForBenchmark",
      "outputs": [
        {
          "internalType": "address",
          "name": "",
          "type": "address"
        }
      ],
      "stateMutability": "view",
      "type": "function"
    },
    {
      "inputs": [
        {
          "internalType": "int256",
          "name": "_settlementAmount",
          "type": "int256"
        },
        {
          "internalType": "string",
          "name": "_settlementData",
          "type": "string"
        }
      ],
      "name": "performSettlement",
      "outputs": [],
      "stateMutability": "nonpayable",
      "type": "function"
    },
    {
      "inputs": [],
      "name": "ratesDecimals",
      "outputs": [
        {
          "internalType": "uint8",
          "name": "",
          "type": "uint8"
        }
      ],
      "stateMutability": "view",
      "type": "function"
    },
    {
      "inputs": [
        {
          "internalType": "string",
          "name": "_URL",
          "type": "string"
        },
        {
          "internalType": "string",
          "name": "_path",
          "type": "string"
        },
        {
          "internalType": "uint256",
          "name": "_multiplier",
          "type": "uint256"
        }
      ],
      "name": "requestReferenceRate",
      "outputs": [
        {
          "internalType": "bytes32",
          "name": "requestId",
          "type": "bytes32"
        }
      ],
      "stateMutability": "nonpayable",
      "type": "function"
    },
    {
      "inputs": [
        {
          "internalType": "string",
          "name": "_tradeId",
          "type": "string"
        },
        {
          "internalType": "int256",
          "name": "_terminationPayment",
          "type": "int256"
        },
        {
          "internalType": "string",
          "name": "_terminationTerms",
          "type": "string"
        }
      ],
      "name": "requestTradeTermination",
      "outputs": [],
      "stateMutability": "nonpayable",
      "type": "function"
    },
    {
      "inputs": [],
      "name": "settlementCurrency",
      "outputs": [
        {
          "internalType": "address",
          "name": "",
          "type": "address"
        }
      ],
      "stateMutability": "view",
      "type": "function"
    },
    {
      "inputs": [],
      "name": "settlementDates",
      "outputs": [
        {
          "internalType": "uint256[]",
          "name": "",
          "type": "uint256[]"
        }
      ],
      "stateMutability": "view",
      "type": "function"
    },
    {
      "inputs": [],
      "name": "settlementFrequency",
      "outputs": [
        {
          "internalType": "uint256",
          "name": "",
          "type": "uint256"
        }
      ],
      "stateMutability": "view",
      "type": "function"
    },
    {
      "inputs": [],
      "name": "spread",
      "outputs": [
        {
          "internalType": "int256",
          "name": "",
          "type": "int256"
        }
      ],
      "stateMutability": "view",
      "type": "function"
    },
    {
      "inputs": [],
      "name": "startingDate",
      "outputs": [
        {
          "internalType": "uint256",
          "name": "",
          "type": "uint256"
        }
      ],
      "stateMutability": "view",
      "type": "function"
    },
    {
      "inputs": [],
      "name": "swap",
      "outputs": [
        {
          "internalType": "bool",
          "name": "",
          "type": "bool"
        }
      ],
      "stateMutability": "nonpayable",
      "type": "function"
    },
    {
      "inputs": [],
      "name": "swapRate",
      "outputs": [
        {
          "internalType": "int256",
          "name": "",
          "type": "int256"
        }
      ],
      "stateMutability": "view",
      "type": "function"
    },
    {
      "inputs": [],
      "name": "symbol",
      "outputs": [
        {
          "internalType": "string",
          "name": "",
          "type": "string"
        }
      ],
      "stateMutability": "view",
      "type": "function"
    },
    {
      "inputs": [],
      "name": "terminateSwap",
      "outputs": [],
      "stateMutability": "nonpayable",
      "type": "function"
    },
    {
      "inputs": [],
      "name": "totalSupply",
      "outputs": [
        {
          "internalType": "uint256",
          "name": "",
          "type": "uint256"
        }
      ],
      "stateMutability": "view",
      "type": "function"
    },
    {
      "inputs": [],
      "name": "tradeID",
      "outputs": [
        {
          "internalType": "string",
          "name": "",
          "type": "string"
        }
      ],
      "stateMutability": "view",
      "type": "function"
    },
    {
      "inputs": [
        {
          "internalType": "address",
          "name": "to",
          "type": "address"
        },
        {
          "internalType": "uint256",
          "name": "amount",
          "type": "uint256"
        }
      ],
      "name": "transfer",
      "outputs": [
        {
          "internalType": "bool",
          "name": "",
          "type": "bool"
        }
      ],
      "stateMutability": "nonpayable",
      "type": "function"
    },
    {
      "inputs": [
        {
          "internalType": "address",
          "name": "from",
          "type": "address"
        },
        {
          "internalType": "address",
          "name": "to",
          "type": "address"
        },
        {
          "internalType": "uint256",
          "name": "amount",
          "type": "uint256"
        }
      ],
      "name": "transferFrom",
      "outputs": [
        {
          "internalType": "bool",
          "name": "",
          "type": "bool"
        }
      ],
      "stateMutability": "nonpayable",
      "type": "function"
    },
    {
      "inputs": [],
      "name": "withdrawLink",
      "outputs": [],
      "stateMutability": "nonpayable",
      "type": "function"
    }
  ],
  "bytecode": "0x608060405260016023553480156200001657600080fd5b506040516200517e3803806200517e8339810160408190526200003991620006b0565b888888888888604051602001620000519190620007ac565b6040516020818303038152906040526200006b90620007ca565b8585601d6200007b83826200087a565b50601e6200008a82826200087a565b50508451600d80546001600160a01b03199081166001600160a01b03938416178255602080890151600e805484169186169190911790556040890151600f80549093169085161790915560608801516010805460808b015160a08c0151939096166001600160a81b031990911617600160a01b60ff968716021760ff60a81b1916600160a81b95909216949094021790925560c087015160115560e0870151601255610100870151601355610120870151601455610140870151601555610160870151601655610180870151805188945091926200016f926017929091019062000381565b5050506040840151602c80546001600160a01b03199081166001600160a01b039384161790915560218054909116918516919091179055602280546001600160a01b0319166001600160a01b038416179055602d819055600a620001dd670de0b6b3a764000060016200095c565b620001e9919062000976565b602e55610180840151516000906200020a90670de0b6b3a76400006200095c565b9050620002198160026200095c565b601b5584516200022a908262000266565b5060208501516200023c908262000266565b505050600797909755505050600892909255610e10600a55600b5550620009af9650505050505050565b60006001600160a01b038316620002c45760405162461bcd60e51b815260206004820152601f60248201527f45524332303a206d696e7420746f20746865207a65726f20616464726573730060448201526064015b60405180910390fd5b81601a6000828254620002d8919062000999565b9091555050601b54601c54601a54620002f2919062000999565b11156200032257601a54601b5460405163d6c6ee6f60e01b815260048101929092526024820152604401620002bb565b6001600160a01b0383166000818152601860209081526040808320805487019055518581527fddf252ad1be2c89b69c2b068fc378daa952ba7f163c4a11628f55a4df523b3ef910160405180910390a35060015b92915050565b505050565b828054828255906000526020600020908101928215620003bf579160200282015b82811115620003bf578251825591602001919060010190620003a2565b50620003cd929150620003d1565b5090565b5b80821115620003cd5760008155600101620003d2565b634e487b7160e01b600052604160045260246000fd5b6040516101a081016001600160401b0381118282101715620004245762000424620003e8565b60405290565b604051601f8201601f191681016001600160401b0381118282101715620004555762000455620003e8565b604052919050565b60005b838110156200047a57818101518382015260200162000460565b50506000910152565b600082601f8301126200049557600080fd5b81516001600160401b03811115620004b157620004b1620003e8565b620004c6601f8201601f19166020016200042a565b818152846020838601011115620004dc57600080fd5b620004ef8260208301602087016200045d565b949350505050565b80516001600160a01b03811681146200050f57600080fd5b919050565b805160ff811681146200050f57600080fd5b600082601f8301126200053857600080fd5b815160206001600160401b03821115620005565762000556620003e8565b8160051b620005678282016200042a565b92835284810182019282810190878511156200058257600080fd5b83870192505b84831015620005a35782518252918301919083019062000588565b979650505050505050565b60006101a08284031215620005c257600080fd5b620005cc620003fe565b9050620005d982620004f7565b8152620005e960208301620004f7565b6020820152620005fc60408301620004f7565b60408201526200060f60608301620004f7565b6060820152620006226080830162000514565b60808201526200063560a0830162000514565b60a082015260c0828101519082015260e080830151908201526101008083015190820152610120808301519082015261014080830151908201526101608083015190820152610180808301516001600160401b038111156200069657600080fd5b620006a48582860162000526565b82840152505092915050565b60008060008060008060008060006101208a8c031215620006d057600080fd5b89516001600160401b0380821115620006e857600080fd5b620006f68d838e0162000483565b9a5060208c01519150808211156200070d57600080fd5b6200071b8d838e0162000483565b995060408c01519150808211156200073257600080fd5b620007408d838e01620005ae565b98506200075060608d01620004f7565b97506200076060808d01620004f7565b965060a08c01519150808211156200077757600080fd5b50620007868c828d0162000483565b94505060c08a0151925060e08a015191506101008a015190509295985092959850929598565b60008251620007c08184602087016200045d565b9190910192915050565b80516020808301519190811015620007ec576000198160200360031b1b821691505b50919050565b600181811c908216806200080757607f821691505b602082108103620007ec57634e487b7160e01b600052602260045260246000fd5b601f8211156200037c57600081815260208120601f850160051c81016020861015620008515750805b601f850160051c820191505b8181101562000872578281556001016200085d565b505050505050565b81516001600160401b03811115620008965762000896620003e8565b620008ae81620008a78454620007f2565b8462000828565b602080601f831160018114620008e65760008415620008cd5750858301515b600019600386901b1c1916600185901b17855562000872565b600085815260208120601f198616915b828110156200091757888601518255948401946001909101908401620008f6565b5085821015620009365787850151600019600388901b60f8161c191681555b5050505050600190811b01905550565b634e487b7160e01b600052601160045260246000fd5b808202811582820484141762000376576200037662000946565b6000826200099457634e487b7160e01b600052601260045260246000fd5b500490565b8082018082111562000376576200037662000946565b6147bf80620009bf6000396000f3fe608060405234801561001057600080fd5b50600436106103575760003560e01c806392b002fa116101c8578063bead103e11610104578063dca0baad116100a2578063e6746eb71161007c578063e6746eb714610726578063e823b1da14610737578063e9f748d41461075a578063ec11c4e91461076257600080fd5b8063dca0baad146106dd578063dd62ed3e146106e5578063e1f7c70a1461071e57600080fd5b8063d19e5133116100de578063d19e51331461069f578063d59624b4146106b2578063d5e8d107146106ba578063d81671bc146106cd57600080fd5b8063bead103e14610671578063c6e9131714610682578063c78b432e1461069757600080fd5b8063a623fe8611610171578063abad3e741161014b578063abad3e741461061f578063bda71d0414610627578063bde7aa471461063a578063be43bef51461065e57600080fd5b8063a623fe86146105db578063a9059cbb14610604578063aad5c2af1461061757600080fd5b80639dc29fac116101a25780639dc29fac146105ad578063a26c1aa2146105c0578063a457c2d7146105c857600080fd5b806392b002fa14610524578063950768011461053557806395d89b41146105a557600080fd5b80635ccc31141161029757806370a0823111610240578063838a3b921161021a578063838a3b92146104ee578063858f0e93146105015780638903c5a2146105145780638dc654a21461051c57600080fd5b806370a08231146104b55780637514b7ed146104de5780638119c065146104e657600080fd5b80636b7e8648116102715780636b7e86481461047a5780636ba639561461048d5780636fec9422146104a057600080fd5b80635ccc31141461043a578063698518e51461044d5780636afc40ea1461045557600080fd5b806331211f3a116103045780633e3ff7b6116102de5780633e3ff7b61461040f57806340c10f1914610417578063442447ca1461042a5780635c25c76c1461043257600080fd5b806331211f3a146103df578063313ce567146103e757806339509351146103fc57600080fd5b806318160ddd1161033557806318160ddd146103b257806323b872dd146103c457806327cbf376146103d757600080fd5b806306fdde031461035c57806308f7490c1461037a578063095ea7b31461038f575b600080fd5b610364610775565b6040516103719190613bf5565b60405180910390f35b61038d610388366004613cab565b610807565b005b6103a261039d366004613d34565b610a6f565b6040519015158152602001610371565b601a545b604051908152602001610371565b6103a26103d2366004613d5e565b610a89565b6007546103b6565b6014546103b6565b60125b60405160ff9091168152602001610371565b6103a261040a366004613d34565b610aad565b6015546103b6565b6103a2610425366004613d34565b610aec565b61038d610c0e565b6012546103b6565b61038d610448366004613d9a565b610caf565b6011546103b6565b600f546001600160a01b03165b6040516001600160a01b039091168152602001610371565b61038d610488366004613e30565b610e87565b61038d61049b366004613e80565b610eb9565b6104a861151a565b6040516103719190613eb1565b6103b66104c3366004613ef5565b6001600160a01b031660009081526018602052604090205490565b600a546103b6565b6103a2611574565b61038d6104fc366004613cab565b6117a7565b61038d61050f366004613d9a565b6118eb565b6025546103b6565b61038d611c08565b600e546001600160a01b0316610462565b61058a610543366004613ef5565b6040805180820190915260008082526020820152506001600160a01b0316600090815260026020908152604091829020825180840190935280548352600101549082015290565b60408051825181526020928301519281019290925201610371565b610364611d4c565b6103a26105bb366004613d34565b611d5b565b6013546103b6565b6103a26105d6366004613d34565b611ed0565b6103b66105e9366004613ef5565b6001600160a01b031660009081526020819052604090205490565b6103a2610612366004613d34565b611f7a565b6008546103b6565b6009546103b6565b61038d610635366004613f10565b611f88565b6010547501000000000000000000000000000000000000000000900460ff166103ea565b60035460ff166040516103719190613f48565b6010546001600160a01b0316610462565b61068a61209a565b6040516103719190613f70565b61038d61213d565b61038d6106ad366004613cab565b612212565b6016546103b6565b6103b66106c8366004613ff4565b612401565b602954610100900460ff166103ea565b6103646124f0565b6103b66106f3366004614061565b6001600160a01b03918216600090815260196020908152604080832093909416825291909152205490565b600b546103b6565b600d546001600160a01b0316610462565b60105474010000000000000000000000000000000000000000900460ff166103ea565b61036461257e565b610364610770366004613d9a565b61258d565b6060601d805461078490614094565b80601f01602080910402602001604051908101604052809291908181526020018280546107b090614094565b80156107fd5780601f106107d2576101008083540402835291602001916107fd565b820191906000526020600020905b8154815290600101906020018083116107e057829003601f168201915b5050505050905090565b600d546001600160a01b031633148061082a5750600e546001600160a01b031633145b61087b5760405162461bcd60e51b815260206004820152601b60248201527f596f7520617265206e6f74206120636f756e74657270617274792e000000000060448201526064015b60405180910390fd5b600560035460ff16600881111561089457610894613f32565b146108e15760405162461bcd60e51b815260206004820152601d60248201527f5472616465207374617465206973206e6f742027536574746c6564272e0000006044820152606401610872565b60006108eb612ad9565b90506000848484604051602001610904939291906140c8565b60408051808303601f190181529181528151602092830120600081815260019093529120549091506001600160a01b038381169116146109695760405163212d5a0d60e11b81526001600160a01b038316600482015260248101829052604401610872565b600081815260016020526040812080546001600160a01b031916905561098d612ad9565b602b80546001600160a01b031916339081179091556001600160a01b03821660009081526002602052604080822054928252812054929350916109d09190614141565b6001600160a01b03808416600090815260026020526040808220600190810154602b549094168352908220015492935091610a0b9190614141565b9050610a178183614141565b602855602b546001600160a01b0380851660009081526002602052604080822082815560019081018390559290931681529182208281550155610a58610c0e565b50506003805460ff19166007179055505050505050565b600033610a7d818585612b0e565b60019150505b92915050565b600033610a97858285612ccb565b610aa2858585612d5d565b506001949350505050565b3360008181526019602090815260408083206001600160a01b0387168452909152812054909190610a7d9082908690610ae7908790614141565b612b0e565b60006001600160a01b038316610b445760405162461bcd60e51b815260206004820152601f60248201527f45524332303a206d696e7420746f20746865207a65726f2061646472657373006044820152606401610872565b81601a6000828254610b569190614141565b9091555050601b54601c54601a54610b6e9190614141565b1115610bb557601a54601b546040517fd6c6ee6f00000000000000000000000000000000000000000000000000000000815260048101929092526024820152604401610872565b6001600160a01b0383166000818152601860209081526040808320805487019055518581527fddf252ad1be2c89b69c2b068fc378daa952ba7f163c4a11628f55a4df523b3ef910160405180910390a350600192915050565b601054602b546028546001600160a01b039283169263a9059cbb921690610c3d90670de0b6b3a7640000614154565b6040516001600160e01b031960e085901b1681526001600160a01b03909216600483015260248201526044016020604051808303816000875af1158015610c88573d6000803e3d6000fd5b505050506040513d601f19601f82011682018060405250810190610cac919061416b565b50565b600160035460ff166008811115610cc857610cc8613f32565b14610d155760405162461bcd60e51b815260206004820152601e60248201527f5472616465207374617465206973206e6f742027496e636570746564272e00006044820152606401610872565b600a54600954610d259042614188565b11610d985760405162461bcd60e51b815260206004820152602360248201527f576169742074696c6c20636f6e6669726d6174696f6e2074696d65206973206f60448201527f76657200000000000000000000000000000000000000000000000000000000006064820152608401610872565b6040513390600090610db89083908990899089908990899060200161419b565b60408051808303601f190181529181528151602092830120600081815260019093529120549091506001600160a01b03838116911614610e1d5760405163212d5a0d60e11b81526001600160a01b038316600482015260248101829052604401610872565b6000818152600160205260409081902080546001600160a01b03191690556003805460ff19169055517fb97ebea18f48d75569ccb549a1079765ee3a73567c656c017da2aad5e75652b790610e7690339060069061426f565b60405180910390a150505050505050565b6040517fff91e43800000000000000000000000000000000000000000000000000000000815260040160405180910390fd5b600260035460ff166008811115610ed257610ed2613f32565b14610f2757600560035460ff166008811115610ef057610ef0613f32565b14610f27576040517fdb15aa4c00000000000000000000000000000000000000000000000000000000815260040160405180910390fd5b601154601254600090610f3960255490565b610f439190614291565b601354909150600090610f569084614154565b601354909150600090610f699084614154565b9050828403610fae576040517f75e621780000000000000000000000000000000000000000000000000000000081526004810185905260248101849052604401610872565b828413156111ea57610fc08183614188565b6027819055600e5460298054620100006001600160a01b039384160275ffffffffffffffffffffffffffffffffffffffff000019909116179055600d54602a80546001600160a01b0319169190921617905586906127109061102a90670de0b6b3a7640000614154565b61103491906142cf565b146110815760405162461bcd60e51b815260206004820152601960248201527f696e76616c696420736574746c656d656e7420616d6f756e74000000000000006044820152606401610872565b6040805160c081018252600d546001600160a01b03908116825260295462010000900481166020830190815260275493830193845242606084019081526080840187815260a08501878152600c8054600181018255600091909152955160069096027fdf6966c971051c3d54ec59162606531493a51404a002842f56009d7e5cf4a8c7810180549787166001600160a01b031998891617905593517fdf6966c971051c3d54ec59162606531493a51404a002842f56009d7e5cf4a8c8850180549190961696169590951790935593517fdf6966c971051c3d54ec59162606531493a51404a002842f56009d7e5cf4a8c982015592517fdf6966c971051c3d54ec59162606531493a51404a002842f56009d7e5cf4a8ca840155517fdf6966c971051c3d54ec59162606531493a51404a002842f56009d7e5cf4a8cb830155517fdf6966c971051c3d54ec59162606531493a51404a002842f56009d7e5cf4a8cc9091015561141a565b6111f48282614188565b6027819055600d5460298054620100006001600160a01b039384160275ffffffffffffffffffffffffffffffffffffffff000019909116179055600e54602a80546001600160a01b0319169190921617905586906127109061125e90670de0b6b3a7640000614154565b61126891906142cf565b146112b55760405162461bcd60e51b815260206004820152601960248201527f696e76616c696420736574746c656d656e7420616d6f756e74000000000000006044820152606401610872565b6040805160c081018252600e546001600160a01b03908116825260295462010000900481166020830190815260275493830193845242606084019081526080840187815260a08501878152600c8054600181018255600091909152955160069096027fdf6966c971051c3d54ec59162606531493a51404a002842f56009d7e5cf4a8c7810180549787166001600160a01b031998891617905593517fdf6966c971051c3d54ec59162606531493a51404a002842f56009d7e5cf4a8c8850180549190961696169590951790935593517fdf6966c971051c3d54ec59162606531493a51404a002842f56009d7e5cf4a8c982015592517fdf6966c971051c3d54ec59162606531493a51404a002842f56009d7e5cf4a8ca840155517fdf6966c971051c3d54ec59162606531493a51404a002842f56009d7e5cf4a8cb830155517fdf6966c971051c3d54ec59162606531493a51404a002842f56009d7e5cf4a8cc909101555b602954610100900460ff166114308160016142e3565b6029805461ff00191661010060ff938416810291909117918290556017549104909116101561147357600380546005919060ff19166001835b02179055506114cc565b601754602954610100900460ff160361149a57600380546008919060ff1916600183611469565b6040517fd038650600000000000000000000000000000000000000000000000000000000815260040160405180910390fd5b602a546027546114e5916001600160a01b031690613075565b7f752a06f360d89e4ed54e5427b88f42c8fc9bf5d1b79904fe9d12701e029fe48d3360275488604051610e76939291906142fc565b6060600d600a018054806020026020016040519081016040528092919081815260200182805480156107fd57602002820191906000526020600020905b815481526020019060010190808311611557575050505050905090565b600d54600090611595906001600160a01b0316670de0b6b3a7640000611d5b565b50600e546115b4906001600160a01b0316670de0b6b3a7640000611d5b565b506000612710602754670de0b6b3a76400006115d09190614154565b6115da91906142cf565b60295490915060ff1660000361169457601054602a546029546040517f23b872dd0000000000000000000000000000000000000000000000000000000081526001600160a01b0392831660048201526201000090910482166024820152604481018490529116906323b872dd906064015b6020604051808303816000875af115801561166a573d6000803e3d6000fd5b505050506040513d601f19601f8201168201806040525081019061168e919061416b565b50611736565b60295460ff166001036116fb576010546029546040517fa9059cbb0000000000000000000000000000000000000000000000000000000081526001600160a01b0362010000909204821660048201526024810184905291169063a9059cbb9060440161164b565b6029546040517f299a37a700000000000000000000000000000000000000000000000000000000815260ff9091166004820152602401610872565b60295460408051620100009092046001600160a01b03168252602082018390527f562c219552544ec4c9d7a8eb850f80ea152973e315372bf4999fe7c953ea004f910160405180910390a150506029805475ffffffffffffffffffffffffffffffffffffffff000019169055600190565b600560035460ff1660088111156117c0576117c0613f32565b1461180d5760405162461bcd60e51b815260206004820152601d60248201527f5472616465207374617465206973206e6f742027536574746c6564272e0000006044820152606401610872565b6040513390600090611827908690869086906020016140c8565b60408051808303601f190181529181528151602092830120600081815260019093529120549091506001600160a01b0383811691161461188c5760405163212d5a0d60e11b81526001600160a01b038316600482015260248101829052604401610872565b6000818152600160205260409081902080546001600160a01b0319169055517f0bf0316e30055987a1da1f06c48c2cbd289a8009806806ef4506435c3d565c0c906118dc90339088908790614324565b60405180910390a15050505050565b600160035460ff16600881111561190457611904613f32565b146119515760405162461bcd60e51b815260206004820152601e60248201527f5472616465207374617465206973206e6f742027496e636570746564272e00006044820152606401610872565b600a546009546119619042614188565b11156119af5760405162461bcd60e51b815260206004820152601960248201527f436f6e66696d617274696f6e2074696d65206973206f766572000000000000006044820152606401610872565b60006119b9612ad9565b905060008633876119c988614358565b6119d288614358565b876040516020016119e89695949392919061419b565b60408051808303601f190181529181528151602092830120600081815260019093529120549091506001600160a01b03838116911614611a4d5760405163212d5a0d60e11b81526001600160a01b038316600482015260248101829052604401610872565b6000818152600160205260409081902080546001600160a01b03191690556003805460ff19166002179055517f02f9110550f3374364c85539074b740b7bfed285798d152502c5f2dfd745cf0090611aa990339060069061426f565b60405180910390a16040805180820182526007805482526008805460208085019182523360009081526002909152948520935184555160019093019290925590549054611af69190614141565b6010549091506001600160a01b031663a9059cbb30611b1d84670de0b6b3a7640000614154565b6040516001600160e01b031960e085901b1681526001600160a01b03909216600483015260248201526044016020604051808303816000875af1158015611b68573d6000803e3d6000fd5b505050506040513d601f19601f82011682018060405250810190611b8c919061416b565b611bfe5760405162461bcd60e51b815260206004820152603e60248201527f4661696c656420746f20746f207472616e736665722074686520696e6974696160448201527f6c206d617267696e202b20746865207465726d696e6174696f6e2066656500006064820152608401610872565b5050505050505050565b6000611c1c6021546001600160a01b031690565b6040516370a0823160e01b81523060048201529091506001600160a01b0382169063a9059cbb90339083906370a0823190602401602060405180830381865afa158015611c6d573d6000803e3d6000fd5b505050506040513d601f19601f82011682018060405250810190611c919190614390565b6040516001600160e01b031960e085901b1681526001600160a01b03909216600483015260248201526044016020604051808303816000875af1158015611cdc573d6000803e3d6000fd5b505050506040513d601f19601f82011682018060405250810190611d00919061416b565b610cac5760405162461bcd60e51b815260206004820152601260248201527f556e61626c6520746f207472616e7366657200000000000000000000000000006044820152606401610872565b6060601e805461078490614094565b60006001600160a01b038316611dd95760405162461bcd60e51b815260206004820152602160248201527f45524332303a206275726e2066726f6d20746865207a65726f2061646472657360448201527f73000000000000000000000000000000000000000000000000000000000000006064820152608401610872565b6001600160a01b03831660009081526018602052604090205482811015611e685760405162461bcd60e51b815260206004820152602260248201527f45524332303a206275726e20616d6f756e7420657863656564732062616c616e60448201527f63650000000000000000000000000000000000000000000000000000000000006064820152608401610872565b6001600160a01b03841660008181526018602090815260408083208786039055601a80548890039055601c805488019055518681529192917fddf252ad1be2c89b69c2b068fc378daa952ba7f163c4a11628f55a4df523b3ef910160405180910390a3610a7d565b3360008181526019602090815260408083206001600160a01b038716845290915281205490919083811015611f6d5760405162461bcd60e51b815260206004820152602560248201527f45524332303a2064656372656173656420616c6c6f77616e63652062656c6f7760448201527f207a65726f0000000000000000000000000000000000000000000000000000006064820152608401610872565b610aa28286868403612b0e565b600033610a7d818585612d5d565b60008281526024602052604090205482906001600160a01b031633146120165760405162461bcd60e51b815260206004820152602860248201527f536f75726365206d75737420626520746865206f7261636c65206f662074686560448201527f20726571756573740000000000000000000000000000000000000000000000006064820152608401610872565b60008181526024602052604080822080546001600160a01b03191690555182917f7cc135e0cebb02c3480ae5d74d377283180a2601f8f644edf7987b009316c63a91a2827f010ca0307aff29975796ecf0fedf2bd331eceb8579d5e63ee15861767879c6958360405161208b91815260200190565b60405180910390a25060255550565b6060600c805480602002602001604051908101604052809291908181526020016000905b828210156121345760008481526020908190206040805160c0810182526006860290920180546001600160a01b0390811684526001808301549091168486015260028201549284019290925260038101546060840152600481015460808401526005015460a083015290835290920191016120be565b50505050905090565b600d546001600160a01b03163314806121605750600e546001600160a01b031633145b6121ac5760405162461bcd60e51b815260206004820152601b60248201527f596f7520617265206e6f74206120636f756e74657270617274792e00000000006044820152606401610872565b600260035460ff1660088111156121c5576121c5613f32565b14610e875760405162461bcd60e51b815260206004820152601f60248201527f5472616465207374617465206973206e6f742027436f6e6669726d6564272e006044820152606401610872565b600d546001600160a01b03163314806122355750600e546001600160a01b031633145b6122815760405162461bcd60e51b815260206004820152601b60248201527f596f7520617265206e6f74206120636f756e74657270617274792e00000000006044820152606401610872565b600560035460ff16600881111561229a5761229a613f32565b146122e75760405162461bcd60e51b815260206004820152601d60248201527f5472616465207374617465206973206e6f742027536574746c6564272e0000006044820152606401610872565b60066040516020016122f991906143a9565b6040516020818303038152906040528051906020012083604051602001612320919061441f565b604051602081830303815290604052805190602001201461236f57826040517fb24228540000000000000000000000000000000000000000000000000000000081526004016108729190613bf5565b6000838383604051602001612386939291906140c8565b60408051601f1981840301815282825280516020918201206000818152600190925291902080546001600160a01b031916339081179091559092507f2296534d3df387ae4ae69f41bf423ee65754b1c234537082a084761f0dcaf138916123f3919087908790879061443b565b60405180910390a150505050565b600080612418602d543063bda71d0460e01b6131a9565b60408051808201909152600381527f6765740000000000000000000000000000000000000000000000000000000000602082015290915061245b90829087613231565b60408051808201909152600481527f7061746800000000000000000000000000000000000000000000000000000000602082015261249b90829086613231565b60408051808201909152600581527f74696d657300000000000000000000000000000000000000000000000000000060208201526124db9082908561324f565b6124e781602e5461326d565b95945050505050565b600680546124fd90614094565b80601f016020809104026020016040519081016040528092919081815260200182805461252990614094565b80156125765780601f1061254b57610100808354040283529160200191612576565b820191906000526020600020905b81548152906001019060200180831161255957829003601f168201915b505050505081565b60606006805461078490614094565b600d546060906001600160a01b03163314806125b35750600e546001600160a01b031633145b6125ff5760405162461bcd60e51b815260206004820152601b60248201527f596f7520617265206e6f74206120636f756e74657270617274792e00000000006044820152606401610872565b600060035460ff16600881111561261857612618613f32565b146126655760405162461bcd60e51b815260206004820152601e60248201527f5472616465207374617465206973206e6f742027496e616374697665272e00006044820152606401610872565b336001600160a01b03871681036126b9576040517f6df887570000000000000000000000000000000000000000000000000000000081523360048201526001600160a01b0388166024820152604401610872565b600d546001600160a01b0388811691161415806126e45750600e546001600160a01b03888116911614155b1561273c57600d54600e546040517ff0576acc0000000000000000000000000000000000000000000000000000000081526001600160a01b03808b166004830152928316602482015291166044820152606401610872565b84600114158061274e57508460001914155b15612788576040517f866da70500000000000000000000000000000000000000000000000000000000815260048101869052602401610872565b836000036127c5576040517f3e19b75d00000000000000000000000000000000000000000000000000000000815260048101859052602401610872565b846001036127fb57600d8054336001600160a01b031991821617909155600e80549091166001600160a01b038916179055612825565b600d80546001600160a01b0389166001600160a01b031991821617909155600e8054909116331790555b6003805460ff191660011790556040516000906128509033908a908a908a908a908a9060200161419b565b60408051601f19818403018152918152815160209283012060008181526001909352912080546001600160a01b03191633179055905061288f8161328e565b60069061289c90826144ce565b5060046128a988826144ce565b50426009556040517f2a1c9ffcfb612ae02061c9c984da3814098f6cfb22c68895d7bb548ddbfd094e906128eb9033908b906006908c908c908c908c9061458e565b60405180910390a160408051808201825260078054825260088054602080850191825233600090815260029091529485209351845551600190930192909255905490546129389190614141565b6010549091506001600160a01b031663a9059cbb3061295f84670de0b6b3a7640000614154565b6040516001600160e01b031960e085901b1681526001600160a01b03909216600483015260248201526044016020604051808303816000875af11580156129aa573d6000803e3d6000fd5b505050506040513d601f19601f820116820180604052508101906129ce919061416b565b612a405760405162461bcd60e51b815260206004820152603e60248201527f4661696c656420746f20746f207472616e736665722074686520696e6974696160448201527f6c206d617267696e202b20746865207465726d696e6174696f6e2066656500006064820152608401610872565b60068054612a4d90614094565b80601f0160208091040260200160405190810160405280929190818152602001828054612a7990614094565b8015612ac65780601f10612a9b57610100808354040283529160200191612ac6565b820191906000526020600020905b815481529060010190602001808311612aa957829003601f168201915b5050505050935050505095945050505050565b600d546000906001600160a01b03163314612afe5750600d546001600160a01b031690565b50600e546001600160a01b031690565b601654421115612b735760405162461bcd60e51b815260206004820152602a60248201527f49525320636f6e747261637420686173207265616368656420746865204d61746044820152697572697479204461746560b01b6064820152608401610872565b6001600160a01b038316612bee5760405162461bcd60e51b8152602060048201526024808201527f45524332303a20617070726f76652066726f6d20746865207a65726f2061646460448201527f72657373000000000000000000000000000000000000000000000000000000006064820152608401610872565b6001600160a01b038216612c6a5760405162461bcd60e51b815260206004820152602260248201527f45524332303a20617070726f766520746f20746865207a65726f20616464726560448201527f73730000000000000000000000000000000000000000000000000000000000006064820152608401610872565b6001600160a01b0383811660008181526019602090815260408083209487168084529482529182902085905590518481527f8c5be1e5ebec7d5bd14f71427d1e84f3dd0314c0f7b2291e5b200ac8c7c3b925910160405180910390a3505050565b6001600160a01b038381166000908152601960209081526040808320938616835292905220546000198114612d575781811015612d4a5760405162461bcd60e51b815260206004820152601d60248201527f45524332303a20696e73756666696369656e7420616c6c6f77616e63650000006044820152606401610872565b612d578484848403612b0e565b50505050565b601654421115612dc25760405162461bcd60e51b815260206004820152602a60248201527f49525320636f6e747261637420686173207265616368656420746865204d61746044820152697572697479204461746560b01b6064820152608401610872565b6001600160a01b038316612e3e5760405162461bcd60e51b815260206004820152602560248201527f45524332303a207472616e736665722066726f6d20746865207a65726f20616460448201527f64726573730000000000000000000000000000000000000000000000000000006064820152608401610872565b6001600160a01b038216612eba5760405162461bcd60e51b815260206004820152602360248201527f45524332303a207472616e7366657220746f20746865207a65726f206164647260448201527f65737300000000000000000000000000000000000000000000000000000000006064820152608401610872565b6001600160a01b038316600090815260186020526040902054818114612f485760405162461bcd60e51b815260206004820152602960248201527f45524332303a20796f75206d757374207472616e7366657220616c6c20796f7560448201527f722062616c616e636500000000000000000000000000000000000000000000006064820152608401610872565b6001600160a01b03808516600081815260186020526040808220868603905586841682529020805485019055600d549091169003612fa057600d80546001600160a01b0319166001600160a01b03851617905561301e565b600e546001600160a01b0390811690851603612fd657600e80546001600160a01b0319166001600160a01b03851617905561301e565b60405162461bcd60e51b815260206004820152601460248201527f696e76616c69642066726f6d20616464726573730000000000000000000000006044820152606401610872565b826001600160a01b0316846001600160a01b03167fddf252ad1be2c89b69c2b068fc378daa952ba7f163c4a11628f55a4df523b3ef8460405161306391815260200190565b60405180910390a3612d57565b505050565b6010546040516370a0823160e01b81526001600160a01b03848116600483015260009216906370a0823190602401602060405180830381865afa1580156130c0573d6000803e3d6000fd5b505050506040513d601f19601f820116820180604052508101906130e49190614390565b9050818110156131a1576001600160a01b0383166000908152600260205260409020548281101561314b576040517f46a3559a0000000000000000000000000000000000000000000000000000000081526004810184905260248101829052604401610872565b6131558382614188565b6001600160a01b038516600090815260026020908152604080832093909355819052208390556029805460ff19166001179055613190611574565b506029805460ff1916905550505050565b612d57611574565b6131e76040805160a0810182526000808252602080830182905282840182905260608084018390528451808601909552845283015290608082015290565b6132256040805160a0810182526000808252602080830182905282840182905260608084018390528451808601909552845283015290608082015290565b6124e78186868661332e565b608083015161324090836133aa565b608083015161307090826133aa565b608083015161325e90836133aa565b608083015161307090826133c1565b602254600090613287906001600160a01b03168484613425565b9392505050565b6060600061329b836134e6565b600101905060008167ffffffffffffffff8111156132bb576132bb613c08565b6040519080825280601f01601f1916602001820160405280156132e5576020820181803683370190505b5090508181016020015b600019017f3031323334353637383961626364656600000000000000000000000000000000600a86061a8153600a85049450846132ef57509392505050565b61336c6040805160a0810182526000808252602080830182905282840182905260608084018390528451808601909552845283015290608082015290565b61337c85608001516101006135c8565b50508284526001600160a01b03821660208501526001600160e01b031981166040850152835b949350505050565b6133b7826003835161362d565b613070828261373c565b67ffffffffffffffff198112156133e0576133dc8282613763565b5050565b67ffffffffffffffff8113156133fa576133dc82826137a5565b6000811261340e576133dc8260008361362d565b6133dc826001613420846000196145fa565b61362d565b602354600090613436816001614141565b602355835160408086015160808701515191516000937f4042994600000000000000000000000000000000000000000000000000000000936134879386938493923092918a91600191602401614621565b60408051601f198184030181529190526020810180517bffffffffffffffffffffffffffffffffffffffffffffffffffffffff166001600160e01b03199093169290921790915290506134dc868386846137c8565b9695505050505050565b6000807a184f03e93ff9f4daa797ed6e38ed64bf6a1f010000000000000000831061352f577a184f03e93ff9f4daa797ed6e38ed64bf6a1f010000000000000000830492506040015b6d04ee2d6d415b85acef8100000000831061355b576d04ee2d6d415b85acef8100000000830492506020015b662386f26fc10000831061357957662386f26fc10000830492506010015b6305f5e1008310613591576305f5e100830492506008015b61271083106135a557612710830492506004015b606483106135b7576064830492506002015b600a8310610a835760010192915050565b6040805180820190915260608152600060208201526135e8602083614685565b15613610576135f8602083614685565b613603906020614188565b61360d9083614141565b91505b506020828101829052604080518085526000815290920101905290565b60178167ffffffffffffffff161161365257612d578360e0600585901b168317613959565b60ff8167ffffffffffffffff161161369057613679836018611fe0600586901b1617613959565b50612d578367ffffffffffffffff8316600161397e565b61ffff8167ffffffffffffffff16116136cf576136b8836019611fe0600586901b1617613959565b50612d578367ffffffffffffffff8316600261397e565b63ffffffff8167ffffffffffffffff1611613710576136f983601a611fe0600586901b1617613959565b50612d578367ffffffffffffffff8316600461397e565b61372583601b611fe0600586901b1617613959565b50612d578367ffffffffffffffff8316600861397e565b604080518082019091526060815260006020820152613287838460000151518485516139a4565b61376e8260c3613959565b506133dc8261377f836000196145fa565b60405160200161379191815260200190565b604051602081830303815290604052613a8e565b6137b08260c2613959565b506133dc828260405160200161379191815260200190565b6040516bffffffffffffffffffffffff193060601b1660208201526034810184905260009060540160408051808303601f1901815282825280516020918201206000818152602490925291812080546001600160a01b0319166001600160a01b038a1617905590925082917fb5e6e01e79f91267dc17b4e6314d5d4d03593d2ceee0fbb452b750bd70ea5af99190a26021546040517f4000aea00000000000000000000000000000000000000000000000000000000081526001600160a01b0390911690634000aea0906138a4908890879087906004016142fc565b6020604051808303816000875af11580156138c3573d6000803e3d6000fd5b505050506040513d601f19601f820116820180604052508101906138e7919061416b565b6133a25760405162461bcd60e51b815260206004820152602360248201527f756e61626c6520746f207472616e73666572416e6443616c6c20746f206f726160448201527f636c6500000000000000000000000000000000000000000000000000000000006064820152608401610872565b6040805180820190915260608152600060208201526132878384600001515184613a9b565b6040805180820190915260608152600060208201526133a2848560000151518585613af6565b60408051808201909152606081526000602082015282518211156139c757600080fd5b60208501516139d68386614141565b1115613a0957613a09856139f9876020015187866139f49190614141565b613b77565b613a04906002614154565b613b8e565b600080865180518760208301019350808887011115613a285787860182525b505050602084015b60208410613a685780518252613a47602083614141565b9150613a54602082614141565b9050613a61602085614188565b9350613a30565b51815160001960208690036101000a019081169019919091161790525083949350505050565b6133b7826002835161362d565b60408051808201909152606081526000602082015283602001518310613ad057613ad08485602001516002613a049190614154565b8351805160208583010184815350808503613aec576001810182525b5093949350505050565b6040805180820190915260608152600060208201526020850151613b1a8584614141565b1115613b2e57613b2e856139f98685614141565b60006001613b3e8461010061477d565b613b489190614188565b9050855183868201018583198251161781525080518487011115613b6c5783860181525b509495945050505050565b600081831115613b88575081610a83565b50919050565b8151613b9a83836135c8565b50612d57838261373c565b60005b83811015613bc0578181015183820152602001613ba8565b50506000910152565b60008151808452613be1816020860160208601613ba5565b601f01601f19169290920160200192915050565b6020815260006132876020830184613bc9565b634e487b7160e01b600052604160045260246000fd5b600082601f830112613c2f57600080fd5b813567ffffffffffffffff80821115613c4a57613c4a613c08565b604051601f8301601f19908116603f01168101908282118183101715613c7257613c72613c08565b81604052838152866020858801011115613c8b57600080fd5b836020870160208301376000602085830101528094505050505092915050565b600080600060608486031215613cc057600080fd5b833567ffffffffffffffff80821115613cd857600080fd5b613ce487838801613c1e565b9450602086013593506040860135915080821115613d0157600080fd5b50613d0e86828701613c1e565b9150509250925092565b80356001600160a01b0381168114613d2f57600080fd5b919050565b60008060408385031215613d4757600080fd5b613d5083613d18565b946020939093013593505050565b600080600060608486031215613d7357600080fd5b613d7c84613d18565b9250613d8a60208501613d18565b9150604084013590509250925092565b600080600080600060a08688031215613db257600080fd5b613dbb86613d18565b9450602086013567ffffffffffffffff80821115613dd857600080fd5b613de489838a01613c1e565b955060408801359450606088013593506080880135915080821115613e0857600080fd5b50613e1588828901613c1e565b9150509295509295909350565b8015158114610cac57600080fd5b60008060408385031215613e4357600080fd5b8235613e4e81613e22565b9150602083013567ffffffffffffffff811115613e6a57600080fd5b613e7685828601613c1e565b9150509250929050565b60008060408385031215613e9357600080fd5b82359150602083013567ffffffffffffffff811115613e6a57600080fd5b6020808252825182820181905260009190848201906040850190845b81811015613ee957835183529284019291840191600101613ecd565b50909695505050505050565b600060208284031215613f0757600080fd5b61328782613d18565b60008060408385031215613f2357600080fd5b50508035926020909101359150565b634e487b7160e01b600052602160045260246000fd5b6020810160098310613f6a57634e487b7160e01b600052602160045260246000fd5b91905290565b602080825282518282018190526000919060409081850190868401855b82811015613fe757815180516001600160a01b0390811686528782015116878601528581015186860152606080820151908601526080808201519086015260a0908101519085015260c09093019290850190600101613f8d565b5091979650505050505050565b60008060006060848603121561400957600080fd5b833567ffffffffffffffff8082111561402157600080fd5b61402d87838801613c1e565b9450602086013591508082111561404357600080fd5b5061405086828701613c1e565b925050604084013590509250925092565b6000806040838503121561407457600080fd5b61407d83613d18565b915061408b60208401613d18565b90509250929050565b600181811c908216806140a857607f821691505b602082108103613b8857634e487b7160e01b600052602260045260246000fd5b6080815260006140db6080830186613bc9565b828103806020850152600982527f7465726d696e61746500000000000000000000000000000000000000000000006020830152856040850152604081016060850152506134dc6040820185613bc9565b634e487b7160e01b600052601160045260246000fd5b80820180821115610a8357610a8361412b565b8082028115828204841417610a8357610a8361412b565b60006020828403121561417d57600080fd5b815161328781613e22565b81810381811115610a8357610a8361412b565b60006001600160a01b03808916835280881660208401525060c060408301526141c760c0830187613bc9565b85606084015284608084015282810360a08401526141e58185613bc9565b9998505050505050505050565b600081546141ff81614094565b80855260206001838116801561421c576001811461423657614264565b60ff1985168884015283151560051b880183019550614264565b866000528260002060005b8581101561425c5781548a8201860152908301908401614241565b890184019650505b505050505092915050565b6001600160a01b03831681526040602082015260006133a260408301846141f2565b80820182811260008312801582168215821617156142b1576142b161412b565b505092915050565b634e487b7160e01b600052601260045260246000fd5b6000826142de576142de6142b9565b500490565b60ff8181168382160190811115610a8357610a8361412b565b6001600160a01b03841681528260208201526060604082015260006124e76060830184613bc9565b6001600160a01b03841681526060602082015260006143466060830185613bc9565b82810360408401526134dc8185613bc9565b60007f800000000000000000000000000000000000000000000000000000000000000082036143895761438961412b565b5060000390565b6000602082840312156143a257600080fd5b5051919050565b60008083546143b781614094565b600182811680156143cf57600181146143e457614413565b60ff1984168752821515830287019450614413565b8760005260208060002060005b8581101561440a5781548a8201529084019082016143f1565b50505082870194505b50929695505050505050565b60008251614431818460208701613ba5565b9190910192915050565b6001600160a01b038516815260806020820152600061445d6080830186613bc9565b84604084015282810360608401526144758185613bc9565b979650505050505050565b601f82111561307057600081815260208120601f850160051c810160208610156144a75750805b601f850160051c820191505b818110156144c6578281556001016144b3565b505050505050565b815167ffffffffffffffff8111156144e8576144e8613c08565b6144fc816144f68454614094565b84614480565b602080601f83116001811461453157600084156145195750858301515b600019600386901b1c1916600185901b1785556144c6565b600085815260208120601f198616915b8281101561456057888601518255948401946001909101908401614541565b508582101561457e5787850151600019600388901b60f8161c191681555b5050505050600190811b01905550565b60006001600160a01b03808a16835280891660208401525060e060408301526145ba60e08301886141f2565b82810360608401526145cc8188613bc9565b90508560808401528460a084015282810360c08401526145ec8185613bc9565b9a9950505050505050505050565b818103600083128015838313168383128216171561461a5761461a61412b565b5092915050565b60006101006001600160a01b03808c1684528a60208501528960408501528089166060850152506001600160e01b0319871660808401528560a08401528460c08401528060e084015261467681840185613bc9565b9b9a5050505050505050505050565b600082614694576146946142b9565b500690565b600181815b808511156146d45781600019048211156146ba576146ba61412b565b808516156146c757918102915b93841c939080029061469e565b509250929050565b6000826146eb57506001610a83565b816146f857506000610a83565b816001811461470e576002811461471857614734565b6001915050610a83565b60ff8411156147295761472961412b565b50506001821b610a83565b5060208310610133831016604e8410600b8410161715614757575081810a610a83565b6147618383614699565b80600019048211156147755761477561412b565b029392505050565b600061328783836146dc56fea264697066735822122087e4fd22671660826b3301dd62cf4f53d6acd88cd2310408d3d043e12831b8dc64736f6c63430008140033",
  "linkReferences": {},
  "deployedLinkReferences": {}
}